{
  "_format": "hh-sol-artifact-1",
  "contractName": "PropertyFactory",
  "sourceName": "contracts/PropertyFactory.sol",
  "abi": [
    {
      "anonymous": false,
      "inputs": [
        {
          "indexed": true,
          "internalType": "address",
          "name": "owner",
          "type": "address"
        },
        {
          "indexed": false,
          "internalType": "address",
          "name": "property",
          "type": "address"
        }
      ],
      "name": "NewPropertyAdded",
      "type": "event"
    },
    {
      "inputs": [
        {
          "internalType": "string",
          "name": "_address",
          "type": "string"
        },
        {
          "internalType": "string",
          "name": "_description",
          "type": "string"
        },
        {
          "internalType": "uint256",
          "name": "_price",
          "type": "uint256"
        },
        {
          "internalType": "uint256",
          "name": "_supply",
          "type": "uint256"
        }
      ],
      "name": "createProperty",
      "outputs": [],
      "stateMutability": "nonpayable",
      "type": "function"
    },
    {
      "inputs": [],
      "name": "getProperties",
      "outputs": [
        {
          "internalType": "address[]",
          "name": "",
          "type": "address[]"
        }
      ],
      "stateMutability": "view",
      "type": "function"
    },
    {
      "inputs": [
        {
          "internalType": "uint256",
          "name": "",
          "type": "uint256"
        }
      ],
      "name": "properties",
      "outputs": [
        {
          "internalType": "address",
          "name": "",
          "type": "address"
        }
      ],
      "stateMutability": "view",
      "type": "function"
    }
  ],
  "bytecode": "0x6080604052348015600f57600080fd5b50613a888061001f6000396000f3fe608060405234801561001057600080fd5b50600436106100415760003560e01c80631d26538f14610046578063ec0cfd0b14610062578063f7b1080814610080575b600080fd5b610060600480360381019061005b9190610418565b6100b0565b005b61006a6101ae565b60405161007791906105a7565b60405180910390f35b61009a600480360381019061009591906105c9565b61023c565b6040516100a79190610605565b60405180910390f35b6000808054905085858585336040516100c89061027b565b6100d7969594939291906106ae565b604051809103906000f0801580156100f3573d6000803e3d6000fd5b5090506000819080600181540180825580915050600190039060005260206000200160009091909190916101000a81548173ffffffffffffffffffffffffffffffffffffffff021916908373ffffffffffffffffffffffffffffffffffffffff1602179055503373ffffffffffffffffffffffffffffffffffffffff167fdbf2d3b63c1ba711b016f9b3de1c374b1205a8e75310eaa579bbff7d6fc47c358260405161019f9190610605565b60405180910390a25050505050565b6060600080548060200260200160405190810160405280929190818152602001828054801561023257602002820191906000526020600020905b8160009054906101000a900473ffffffffffffffffffffffffffffffffffffffff1673ffffffffffffffffffffffffffffffffffffffff16815260200190600101908083116101e8575b5050505050905090565b6000818154811061024c57600080fd5b906000526020600020016000915054906101000a900473ffffffffffffffffffffffffffffffffffffffff1681565b6133358061071e83390190565b6000604051905090565b600080fd5b600080fd5b600080fd5b600080fd5b6000601f19601f8301169050919050565b7f4e487b7100000000000000000000000000000000000000000000000000000000600052604160045260246000fd5b6102ef826102a6565b810181811067ffffffffffffffff8211171561030e5761030d6102b7565b5b80604052505050565b6000610321610288565b905061032d82826102e6565b919050565b600067ffffffffffffffff82111561034d5761034c6102b7565b5b610356826102a6565b9050602081019050919050565b82818337600083830152505050565b600061038561038084610332565b610317565b9050828152602081018484840111156103a1576103a06102a1565b5b6103ac848285610363565b509392505050565b600082601f8301126103c9576103c861029c565b5b81356103d9848260208601610372565b91505092915050565b6000819050919050565b6103f5816103e2565b811461040057600080fd5b50565b600081359050610412816103ec565b92915050565b6000806000806080858703121561043257610431610292565b5b600085013567ffffffffffffffff8111156104505761044f610297565b5b61045c878288016103b4565b945050602085013567ffffffffffffffff81111561047d5761047c610297565b5b610489878288016103b4565b935050604061049a87828801610403565b92505060606104ab87828801610403565b91505092959194509250565b600081519050919050565b600082825260208201905092915050565b6000819050602082019050919050565b600073ffffffffffffffffffffffffffffffffffffffff82169050919050565b600061050e826104e3565b9050919050565b61051e81610503565b82525050565b60006105308383610515565b60208301905092915050565b6000602082019050919050565b6000610554826104b7565b61055e81856104c2565b9350610569836104d3565b8060005b8381101561059a5781516105818882610524565b975061058c8361053c565b92505060018101905061056d565b5085935050505092915050565b600060208201905081810360008301526105c18184610549565b905092915050565b6000602082840312156105df576105de610292565b5b60006105ed84828501610403565b91505092915050565b6105ff81610503565b82525050565b600060208201905061061a60008301846105f6565b92915050565b610629816103e2565b82525050565b600081519050919050565b600082825260208201905092915050565b60005b8381101561066957808201518184015260208101905061064e565b60008484015250505050565b60006106808261062f565b61068a818561063a565b935061069a81856020860161064b565b6106a3816102a6565b840191505092915050565b600060c0820190506106c36000830189610620565b81810360208301526106d58188610675565b905081810360408301526106e98187610675565b90506106f86060830186610620565b6107056080830185610620565b61071260a08301846105f6565b97965050505050505056fe60806040526000600560146101000a81548160ff02191690831515021790555034801561002b57600080fd5b50604051613335380380613335833981810160405281019061004d91906107c6565b806040518060400160405280600d81526020017f50726f7065727479546f6b656e000000000000000000000000000000000000008152506040518060400160405280600481526020017f50524f500000000000000000000000000000000000000000000000000000000081525081600390816100c99190610aa2565b5080600490816100d99190610aa2565b505050600073ffffffffffffffffffffffffffffffffffffffff168173ffffffffffffffffffffffffffffffffffffffff160361014e5760006040517f1e4fbdf70000000000000000000000000000000000000000000000000000000081526004016101459190610b83565b60405180910390fd5b61015d8161024a60201b60201c565b506006819080600181540180825580915050600190039060005260206000200160009091909190916101000a81548173ffffffffffffffffffffffffffffffffffffffff021916908373ffffffffffffffffffffffffffffffffffffffff1602179055506000600981905550604051806080016040528087815260200186815260200185815260200184815250600a60008201518160000155602082015181600101908161020b9190610aa2565b5060408201518160020190816102219190610aa2565b506060820151816003015590505061023f818361031060201b60201c565b505050505050610c62565b6000600560009054906101000a900473ffffffffffffffffffffffffffffffffffffffff16905081600560006101000a81548173ffffffffffffffffffffffffffffffffffffffff021916908373ffffffffffffffffffffffffffffffffffffffff1602179055508173ffffffffffffffffffffffffffffffffffffffff168173ffffffffffffffffffffffffffffffffffffffff167f8be0079c531659141344cd1fd0a4f28419497f9722a3daafe3b4186f6b6457e060405160405180910390a35050565b600073ffffffffffffffffffffffffffffffffffffffff168273ffffffffffffffffffffffffffffffffffffffff16036103825760006040517fec442f050000000000000000000000000000000000000000000000000000000081526004016103799190610b83565b60405180910390fd5b6103946000838361039860201b60201c565b5050565b600073ffffffffffffffffffffffffffffffffffffffff168373ffffffffffffffffffffffffffffffffffffffff16036103ea5780600260008282546103de9190610bcd565b925050819055506104bd565b60008060008573ffffffffffffffffffffffffffffffffffffffff1673ffffffffffffffffffffffffffffffffffffffff16815260200190815260200160002054905081811015610476578381836040517fe450d38c00000000000000000000000000000000000000000000000000000000815260040161046d93929190610c10565b60405180910390fd5b8181036000808673ffffffffffffffffffffffffffffffffffffffff1673ffffffffffffffffffffffffffffffffffffffff16815260200190815260200160002081905550505b600073ffffffffffffffffffffffffffffffffffffffff168273ffffffffffffffffffffffffffffffffffffffff16036105065780600260008282540392505081905550610553565b806000808473ffffffffffffffffffffffffffffffffffffffff1673ffffffffffffffffffffffffffffffffffffffff168152602001908152602001600020600082825401925050819055505b8173ffffffffffffffffffffffffffffffffffffffff168373ffffffffffffffffffffffffffffffffffffffff167fddf252ad1be2c89b69c2b068fc378daa952ba7f163c4a11628f55a4df523b3ef836040516105b09190610c47565b60405180910390a3505050565b6000604051905090565b600080fd5b600080fd5b6000819050919050565b6105e4816105d1565b81146105ef57600080fd5b50565b600081519050610601816105db565b92915050565b600080fd5b600080fd5b6000601f19601f8301169050919050565b7f4e487b7100000000000000000000000000000000000000000000000000000000600052604160045260246000fd5b61065a82610611565b810181811067ffffffffffffffff8211171561067957610678610622565b5b80604052505050565b600061068c6105bd565b90506106988282610651565b919050565b600067ffffffffffffffff8211156106b8576106b7610622565b5b6106c182610611565b9050602081019050919050565b60005b838110156106ec5780820151818401526020810190506106d1565b60008484015250505050565b600061070b6107068461069d565b610682565b9050828152602081018484840111156107275761072661060c565b5b6107328482856106ce565b509392505050565b600082601f83011261074f5761074e610607565b5b815161075f8482602086016106f8565b91505092915050565b600073ffffffffffffffffffffffffffffffffffffffff82169050919050565b600061079382610768565b9050919050565b6107a381610788565b81146107ae57600080fd5b50565b6000815190506107c08161079a565b92915050565b60008060008060008060c087890312156107e3576107e26105c7565b5b60006107f189828a016105f2565b965050602087015167ffffffffffffffff811115610812576108116105cc565b5b61081e89828a0161073a565b955050604087015167ffffffffffffffff81111561083f5761083e6105cc565b5b61084b89828a0161073a565b945050606061085c89828a016105f2565b935050608061086d89828a016105f2565b92505060a061087e89828a016107b1565b9150509295509295509295565b600081519050919050565b7f4e487b7100000000000000000000000000000000000000000000000000000000600052602260045260246000fd5b600060028204905060018216806108dd57607f821691505b6020821081036108f0576108ef610896565b5b50919050565b60008190508160005260206000209050919050565b60006020601f8301049050919050565b600082821b905092915050565b6000600883026109587fffffffffffffffffffffffffffffffffffffffffffffffffffffffffffffffff8261091b565b610962868361091b565b95508019841693508086168417925050509392505050565b6000819050919050565b600061099f61099a610995846105d1565b61097a565b6105d1565b9050919050565b6000819050919050565b6109b983610984565b6109cd6109c5826109a6565b848454610928565b825550505050565b600090565b6109e26109d5565b6109ed8184846109b0565b505050565b5b81811015610a1157610a066000826109da565b6001810190506109f3565b5050565b601f821115610a5657610a27816108f6565b610a308461090b565b81016020851015610a3f578190505b610a53610a4b8561090b565b8301826109f2565b50505b505050565b600082821c905092915050565b6000610a7960001984600802610a5b565b1980831691505092915050565b6000610a928383610a68565b9150826002028217905092915050565b610aab8261088b565b67ffffffffffffffff811115610ac457610ac3610622565b5b610ace82546108c5565b610ad9828285610a15565b600060209050601f831160018114610b0c5760008415610afa578287015190505b610b048582610a86565b865550610b6c565b601f198416610b1a866108f6565b60005b82811015610b4257848901518255600182019150602085019450602081019050610b1d565b86831015610b5f5784890151610b5b601f891682610a68565b8355505b6001600288020188555050505b505050505050565b610b7d81610788565b82525050565b6000602082019050610b986000830184610b74565b92915050565b7f4e487b7100000000000000000000000000000000000000000000000000000000600052601160045260246000fd5b6000610bd8826105d1565b9150610be3836105d1565b9250828201905080821115610bfb57610bfa610b9e565b5b92915050565b610c0a816105d1565b82525050565b6000606082019050610c256000830186610b74565b610c326020830185610c01565b610c3f6040830184610c01565b949350505050565b6000602082019050610c5c6000830184610c01565b92915050565b6126c480610c716000396000f3fe60806040526004361061014f5760003560e01c80635fe8e7cc116100b65780639d1180d51161006f5780639d1180d514610451578063a9059cbb1461048e578063b1ffad26146104cb578063dd62ed3e14610508578063f2fde38b14610545578063f3d84a191461056e5761016e565b80635fe8e7cc1461036557806370a0823114610390578063715018a6146103cd578063889759ad146103e45780638da5cb5b146103fb57806395d89b41146104265761016e565b80632d07953a116101085780632d07953a14610297578063313ce567146102ae5780633ccfd60b146102d95780633f4c0cfa146102f057806346bfcb351461030c5780635cfbeb77146103375761016e565b806306fdde0314610173578063095ea7b31461019e57806316efd941146101db57806318160ddd146101f257806323b872dd1461021d5780632a11ced01461025a5761016e565b3661016e5734600960008282546101669190611ca1565b925050819055005b600080fd5b34801561017f57600080fd5b50610188610585565b6040516101959190611d65565b60405180910390f35b3480156101aa57600080fd5b506101c560048036038101906101c09190611e16565b610617565b6040516101d29190611e71565b60405180910390f35b3480156101e757600080fd5b506101f061063a565b005b3480156101fe57600080fd5b5061020761066e565b6040516102149190611e9b565b60405180910390f35b34801561022957600080fd5b50610244600480360381019061023f9190611eb6565b610678565b6040516102519190611e71565b60405180910390f35b34801561026657600080fd5b50610281600480360381019061027c9190611f09565b6106a7565b60405161028e9190611f45565b60405180910390f35b3480156102a357600080fd5b506102ac6106e6565b005b3480156102ba57600080fd5b506102c3610886565b6040516102d09190611f7c565b60405180910390f35b3480156102e557600080fd5b506102ee61088f565b005b61030a60048036038101906103059190611e16565b610a4c565b005b34801561031857600080fd5b50610321610d86565b60405161032e9190611e9b565b60405180910390f35b34801561034357600080fd5b5061034c610d8c565b60405161035c9493929190611f97565b60405180910390f35b34801561037157600080fd5b5061037a610eba565b60405161038791906120a8565b60405180910390f35b34801561039c57600080fd5b506103b760048036038101906103b291906120ca565b610f48565b6040516103c49190611e9b565b60405180910390f35b3480156103d957600080fd5b506103e2610f90565b005b3480156103f057600080fd5b506103f9610fa4565b005b34801561040757600080fd5b50610410611098565b60405161041d9190611f45565b60405180910390f35b34801561043257600080fd5b5061043b6110c2565b6040516104489190611d65565b60405180910390f35b34801561045d57600080fd5b50610478600480360381019061047391906120ca565b611154565b6040516104859190611e71565b60405180910390f35b34801561049a57600080fd5b506104b560048036038101906104b09190611e16565b611174565b6040516104c29190611e71565b60405180910390f35b3480156104d757600080fd5b506104f260048036038101906104ed91906120ca565b611197565b6040516104ff9190611e9b565b60405180910390f35b34801561051457600080fd5b5061052f600480360381019061052a91906120f7565b6111af565b60405161053c9190611e9b565b60405180910390f35b34801561055157600080fd5b5061056c600480360381019061056791906120ca565b611236565b005b34801561057a57600080fd5b506105836112bc565b005b60606003805461059490612166565b80601f01602080910402602001604051908101604052809291908181526020018280546105c090612166565b801561060d5780601f106105e25761010080835404028352916020019161060d565b820191906000526020600020905b8154815290600101906020018083116105f057829003601f168201915b5050505050905090565b6000806106226113b0565b905061062f8185856113b8565b600191505092915050565b6106426113ca565b600560149054906101000a900460ff1615600560146101000a81548160ff021916908315150217905550565b6000600254905090565b6000806106836113b0565b9050610690858285611451565b61069b8585856114e5565b60019150509392505050565b600681815481106106b757600080fd5b906000526020600020016000915054906101000a900473ffffffffffffffffffffffffffffffffffffffff1681565b6106ee6113ca565b600060095411610733576040517f08c379a000000000000000000000000000000000000000000000000000000000815260040161072a906121e3565b60405180910390fd5b60005b60068054905081101561084f57600061078c6006838154811061075c5761075b612203565b5b9060005260206000200160009054906101000a900473ffffffffffffffffffffffffffffffffffffffff16610f48565b61079461066e565b6009546107a19190612261565b6107ab9190612292565b90508060086000600685815481106107c6576107c5612203565b5b9060005260206000200160009054906101000a900473ffffffffffffffffffffffffffffffffffffffff1673ffffffffffffffffffffffffffffffffffffffff1673ffffffffffffffffffffffffffffffffffffffff168152602001908152602001600020600082825461083a9190611ca1565b92505081905550508080600101915050610736565b5060006009819055507f6dac861c86078d7c3d9728e18fa2b5595af50eeea617ef04111b218a72e62c0b60405160405180910390a1565b60006012905090565b6000600860003373ffffffffffffffffffffffffffffffffffffffff1673ffffffffffffffffffffffffffffffffffffffff1681526020019081526020016000205411610911576040517f08c379a000000000000000000000000000000000000000000000000000000000815260040161090890612320565b60405180910390fd5b6000600860003373ffffffffffffffffffffffffffffffffffffffff1673ffffffffffffffffffffffffffffffffffffffff1681526020019081526020016000205490506000600860003373ffffffffffffffffffffffffffffffffffffffff1673ffffffffffffffffffffffffffffffffffffffff1681526020019081526020016000208190555060006109a533610f48565b036109b4576109b3336115d9565b5b3373ffffffffffffffffffffffffffffffffffffffff166108fc829081150290604051600060405180830381858888f193505050501580156109fa573d6000803e3d6000fd5b503373ffffffffffffffffffffffffffffffffffffffff167f2fb81ee7bc371ba1b16658f7c05cdba96a4a93210e94ce52591a2228a3c04a4a82604051610a419190611e9b565b60405180910390a250565b600560149054906101000a900460ff1615610a9c576040517f08c379a0000000000000000000000000000000000000000000000000000000008152600401610a93906123b2565b60405180910390fd5b600760008373ffffffffffffffffffffffffffffffffffffffff1673ffffffffffffffffffffffffffffffffffffffff16815260200190815260200160002060009054906101000a900460ff16610b28576040517f08c379a0000000000000000000000000000000000000000000000000000000008152600401610b1f90612444565b60405180910390fd5b600081610b3361066e565b600a60030154610b439190612261565b610b4d9190612292565b905081610b5984610f48565b1015610b9a576040517f08c379a0000000000000000000000000000000000000000000000000000000008152600401610b91906124d6565b60405180910390fd5b80341015610bdd576040517f08c379a0000000000000000000000000000000000000000000000000000000008152600401610bd490612542565b60405180910390fd5b6000610be833610f48565b03610c51576006339080600181540180825580915050600190039060005260206000200160009091909190916101000a81548173ffffffffffffffffffffffffffffffffffffffff021916908373ffffffffffffffffffffffffffffffffffffffff1602179055505b610c5c8333846114e5565b80600860008573ffffffffffffffffffffffffffffffffffffffff1673ffffffffffffffffffffffffffffffffffffffff1681526020019081526020016000206000828254610cab9190611ca1565b9250508190555080341115610d1c578034610cc69190612562565b600860003373ffffffffffffffffffffffffffffffffffffffff1673ffffffffffffffffffffffffffffffffffffffff1681526020019081526020016000206000828254610d149190611ca1565b925050819055505b3373ffffffffffffffffffffffffffffffffffffffff168373ffffffffffffffffffffffffffffffffffffffff167f327b6ce5ae0ebd802d3982c11fb5d1c1fcd0d47eed462df8afa99c1b575996ef84604051610d799190611e9b565b60405180910390a3505050565b60095481565b600a806000015490806001018054610da390612166565b80601f0160208091040260200160405190810160405280929190818152602001828054610dcf90612166565b8015610e1c5780601f10610df157610100808354040283529160200191610e1c565b820191906000526020600020905b815481529060010190602001808311610dff57829003601f168201915b505050505090806002018054610e3190612166565b80601f0160208091040260200160405190810160405280929190818152602001828054610e5d90612166565b8015610eaa5780601f10610e7f57610100808354040283529160200191610eaa565b820191906000526020600020905b815481529060010190602001808311610e8d57829003601f168201915b5050505050908060030154905084565b60606006805480602002602001604051908101604052809291908181526020018280548015610f3e57602002820191906000526020600020905b8160009054906101000a900473ffffffffffffffffffffffffffffffffffffffff1673ffffffffffffffffffffffffffffffffffffffff1681526020019060010190808311610ef4575b5050505050905090565b60008060008373ffffffffffffffffffffffffffffffffffffffff1673ffffffffffffffffffffffffffffffffffffffff168152602001908152602001600020549050919050565b610f986113ca565b610fa260006117a6565b565b6000610faf33610f48565b11610fef576040517f08c379a0000000000000000000000000000000000000000000000000000000008152600401610fe690612608565b60405180910390fd5b6000600760003373ffffffffffffffffffffffffffffffffffffffff1673ffffffffffffffffffffffffffffffffffffffff16815260200190815260200160002060006101000a81548160ff0219169083151502179055503373ffffffffffffffffffffffffffffffffffffffff167f7f5afba82537588e2b8f8287c533b55a7458b4ae0249d14e29864df86b50b718600060405161108e9190611e71565b60405180910390a2565b6000600560009054906101000a900473ffffffffffffffffffffffffffffffffffffffff16905090565b6060600480546110d190612166565b80601f01602080910402602001604051908101604052809291908181526020018280546110fd90612166565b801561114a5780601f1061111f5761010080835404028352916020019161114a565b820191906000526020600020905b81548152906001019060200180831161112d57829003601f168201915b5050505050905090565b60076020528060005260406000206000915054906101000a900460ff1681565b60008061117f6113b0565b905061118c8185856114e5565b600191505092915050565b60086020528060005260406000206000915090505481565b6000600160008473ffffffffffffffffffffffffffffffffffffffff1673ffffffffffffffffffffffffffffffffffffffff16815260200190815260200160002060008373ffffffffffffffffffffffffffffffffffffffff1673ffffffffffffffffffffffffffffffffffffffff16815260200190815260200160002054905092915050565b61123e6113ca565b600073ffffffffffffffffffffffffffffffffffffffff168173ffffffffffffffffffffffffffffffffffffffff16036112b05760006040517f1e4fbdf70000000000000000000000000000000000000000000000000000000081526004016112a79190611f45565b60405180910390fd5b6112b9816117a6565b50565b60006112c733610f48565b11611307576040517f08c379a00000000000000000000000000000000000000000000000000000000081526004016112fe90612608565b60405180910390fd5b6001600760003373ffffffffffffffffffffffffffffffffffffffff1673ffffffffffffffffffffffffffffffffffffffff16815260200190815260200160002060006101000a81548160ff0219169083151502179055503373ffffffffffffffffffffffffffffffffffffffff167f7f5afba82537588e2b8f8287c533b55a7458b4ae0249d14e29864df86b50b71860016040516113a69190611e71565b60405180910390a2565b600033905090565b6113c5838383600161186c565b505050565b6113d26113b0565b73ffffffffffffffffffffffffffffffffffffffff166113f0611098565b73ffffffffffffffffffffffffffffffffffffffff161461144f576114136113b0565b6040517f118cdaa70000000000000000000000000000000000000000000000000000000081526004016114469190611f45565b60405180910390fd5b565b600061145d84846111af565b90507fffffffffffffffffffffffffffffffffffffffffffffffffffffffffffffffff81146114df57818110156114cf578281836040517ffb8f41b20000000000000000000000000000000000000000000000000000000081526004016114c693929190612628565b60405180910390fd5b6114de8484848403600061186c565b5b50505050565b600073ffffffffffffffffffffffffffffffffffffffff168373ffffffffffffffffffffffffffffffffffffffff16036115575760006040517f96c6fd1e00000000000000000000000000000000000000000000000000000000815260040161154e9190611f45565b60405180910390fd5b600073ffffffffffffffffffffffffffffffffffffffff168273ffffffffffffffffffffffffffffffffffffffff16036115c95760006040517fec442f050000000000000000000000000000000000000000000000000000000081526004016115c09190611f45565b60405180910390fd5b6115d4838383611a43565b505050565b60005b60068054905081101561175f578173ffffffffffffffffffffffffffffffffffffffff166006828154811061161457611613612203565b5b9060005260206000200160009054906101000a900473ffffffffffffffffffffffffffffffffffffffff1673ffffffffffffffffffffffffffffffffffffffff1603611752576006600160068054905061166e9190612562565b8154811061167f5761167e612203565b5b9060005260206000200160009054906101000a900473ffffffffffffffffffffffffffffffffffffffff16600682815481106116be576116bd612203565b5b9060005260206000200160006101000a81548173ffffffffffffffffffffffffffffffffffffffff021916908373ffffffffffffffffffffffffffffffffffffffff16021790555060068054806117185761171761265f565b5b6001900381819060005260206000200160006101000a81549073ffffffffffffffffffffffffffffffffffffffff0219169055905561175f565b80806001019150506115dc565b508073ffffffffffffffffffffffffffffffffffffffff167fd9bc583d1445615d8b795b7374f03ff79efa83b6359a91331efd95e4cf023ab660405160405180910390a250565b6000600560009054906101000a900473ffffffffffffffffffffffffffffffffffffffff16905081600560006101000a81548173ffffffffffffffffffffffffffffffffffffffff021916908373ffffffffffffffffffffffffffffffffffffffff1602179055508173ffffffffffffffffffffffffffffffffffffffff168173ffffffffffffffffffffffffffffffffffffffff167f8be0079c531659141344cd1fd0a4f28419497f9722a3daafe3b4186f6b6457e060405160405180910390a35050565b600073ffffffffffffffffffffffffffffffffffffffff168473ffffffffffffffffffffffffffffffffffffffff16036118de5760006040517fe602df050000000000000000000000000000000000000000000000000000000081526004016118d59190611f45565b60405180910390fd5b600073ffffffffffffffffffffffffffffffffffffffff168373ffffffffffffffffffffffffffffffffffffffff16036119505760006040517f94280d620000000000000000000000000000000000000000000000000000000081526004016119479190611f45565b60405180910390fd5b81600160008673ffffffffffffffffffffffffffffffffffffffff1673ffffffffffffffffffffffffffffffffffffffff16815260200190815260200160002060008573ffffffffffffffffffffffffffffffffffffffff1673ffffffffffffffffffffffffffffffffffffffff168152602001908152602001600020819055508015611a3d578273ffffffffffffffffffffffffffffffffffffffff168473ffffffffffffffffffffffffffffffffffffffff167f8c5be1e5ebec7d5bd14f71427d1e84f3dd0314c0f7b2291e5b200ac8c7c3b92584604051611a349190611e9b565b60405180910390a35b50505050565b600073ffffffffffffffffffffffffffffffffffffffff168373ffffffffffffffffffffffffffffffffffffffff1603611a95578060026000828254611a899190611ca1565b92505081905550611b68565b60008060008573ffffffffffffffffffffffffffffffffffffffff1673ffffffffffffffffffffffffffffffffffffffff16815260200190815260200160002054905081811015611b21578381836040517fe450d38c000000000000000000000000000000000000000000000000000000008152600401611b1893929190612628565b60405180910390fd5b8181036000808673ffffffffffffffffffffffffffffffffffffffff1673ffffffffffffffffffffffffffffffffffffffff16815260200190815260200160002081905550505b600073ffffffffffffffffffffffffffffffffffffffff168273ffffffffffffffffffffffffffffffffffffffff1603611bb15780600260008282540392505081905550611bfe565b806000808473ffffffffffffffffffffffffffffffffffffffff1673ffffffffffffffffffffffffffffffffffffffff168152602001908152602001600020600082825401925050819055505b8173ffffffffffffffffffffffffffffffffffffffff168373ffffffffffffffffffffffffffffffffffffffff167fddf252ad1be2c89b69c2b068fc378daa952ba7f163c4a11628f55a4df523b3ef83604051611c5b9190611e9b565b60405180910390a3505050565b6000819050919050565b7f4e487b7100000000000000000000000000000000000000000000000000000000600052601160045260246000fd5b6000611cac82611c68565b9150611cb783611c68565b9250828201905080821115611ccf57611cce611c72565b5b92915050565b600081519050919050565b600082825260208201905092915050565b60005b83811015611d0f578082015181840152602081019050611cf4565b60008484015250505050565b6000601f19601f8301169050919050565b6000611d3782611cd5565b611d418185611ce0565b9350611d51818560208601611cf1565b611d5a81611d1b565b840191505092915050565b60006020820190508181036000830152611d7f8184611d2c565b905092915050565b600080fd5b600073ffffffffffffffffffffffffffffffffffffffff82169050919050565b6000611db782611d8c565b9050919050565b611dc781611dac565b8114611dd257600080fd5b50565b600081359050611de481611dbe565b92915050565b611df381611c68565b8114611dfe57600080fd5b50565b600081359050611e1081611dea565b92915050565b60008060408385031215611e2d57611e2c611d87565b5b6000611e3b85828601611dd5565b9250506020611e4c85828601611e01565b9150509250929050565b60008115159050919050565b611e6b81611e56565b82525050565b6000602082019050611e866000830184611e62565b92915050565b611e9581611c68565b82525050565b6000602082019050611eb06000830184611e8c565b92915050565b600080600060608486031215611ecf57611ece611d87565b5b6000611edd86828701611dd5565b9350506020611eee86828701611dd5565b9250506040611eff86828701611e01565b9150509250925092565b600060208284031215611f1f57611f1e611d87565b5b6000611f2d84828501611e01565b91505092915050565b611f3f81611dac565b82525050565b6000602082019050611f5a6000830184611f36565b92915050565b600060ff82169050919050565b611f7681611f60565b82525050565b6000602082019050611f916000830184611f6d565b92915050565b6000608082019050611fac6000830187611e8c565b8181036020830152611fbe8186611d2c565b90508181036040830152611fd28185611d2c565b9050611fe16060830184611e8c565b95945050505050565b600081519050919050565b600082825260208201905092915050565b6000819050602082019050919050565b61201f81611dac565b82525050565b60006120318383612016565b60208301905092915050565b6000602082019050919050565b600061205582611fea565b61205f8185611ff5565b935061206a83612006565b8060005b8381101561209b5781516120828882612025565b975061208d8361203d565b92505060018101905061206e565b5085935050505092915050565b600060208201905081810360008301526120c2818461204a565b905092915050565b6000602082840312156120e0576120df611d87565b5b60006120ee84828501611dd5565b91505092915050565b6000806040838503121561210e5761210d611d87565b5b600061211c85828601611dd5565b925050602061212d85828601611dd5565b9150509250929050565b7f4e487b7100000000000000000000000000000000000000000000000000000000600052602260045260246000fd5b6000600282049050600182168061217e57607f821691505b60208210810361219157612190612137565b5b50919050565b7f4e6f20726576656e756520746f20646973747269627574650000000000000000600082015250565b60006121cd601883611ce0565b91506121d882612197565b602082019050919050565b600060208201905081810360008301526121fc816121c0565b9050919050565b7f4e487b7100000000000000000000000000000000000000000000000000000000600052603260045260246000fd5b7f4e487b7100000000000000000000000000000000000000000000000000000000600052601260045260246000fd5b600061226c82611c68565b915061227783611c68565b92508261228757612286612232565b5b828204905092915050565b600061229d82611c68565b91506122a883611c68565b92508282026122b681611c68565b915082820484148315176122cd576122cc611c72565b5b5092915050565b7f4e6f20726576656e756520746f20776974686472617700000000000000000000600082015250565b600061230a601683611ce0565b9150612315826122d4565b602082019050919050565b60006020820190508181036000830152612339816122fd565b9050919050565b7f5468697320616374696f6e2069732070617573656420627920746865206f776e60008201527f6572000000000000000000000000000000000000000000000000000000000000602082015250565b600061239c602283611ce0565b91506123a782612340565b604082019050919050565b600060208201905081810360008301526123cb8161238f565b9050919050565b7f54686520726571756573746564207368617265686f6c646572206973206e6f7460008201527f2073656c6c696e67000000000000000000000000000000000000000000000000602082015250565b600061242e602883611ce0565b9150612439826123d2565b604082019050919050565b6000602082019050818103600083015261245d81612421565b9050919050565b7f5368617265686f6c64657220646f65736e277420686176652074686973206d6160008201527f6e7920746f6b656e730000000000000000000000000000000000000000000000602082015250565b60006124c0602983611ce0565b91506124cb82612464565b604082019050919050565b600060208201905081810360008301526124ef816124b3565b9050919050565b7f496e73756666696369656e742066756e64730000000000000000000000000000600082015250565b600061252c601283611ce0565b9150612537826124f6565b602082019050919050565b6000602082019050818103600083015261255b8161251f565b9050919050565b600061256d82611c68565b915061257883611c68565b92508282039050818111156125905761258f611c72565b5b92915050565b7f4f6e6c79207368617265686f6c646572732063616e20706572666f726d20746860008201527f697320616374696f6e0000000000000000000000000000000000000000000000602082015250565b60006125f2602983611ce0565b91506125fd82612596565b604082019050919050565b60006020820190508181036000830152612621816125e5565b9050919050565b600060608201905061263d6000830186611f36565b61264a6020830185611e8c565b6126576040830184611e8c565b949350505050565b7f4e487b7100000000000000000000000000000000000000000000000000000000600052603160045260246000fdfea26469706673582212206240e92b4aabe1effac647fd6554204e7c5a05bb29c7ed7faa019bd9f475a45564736f6c634300081b0033a2646970667358221220865d2405b4f8b9e777306461982d8db9df25a386fac2799586d2b17b4ee0de2464736f6c634300081b0033",
  "linkReferences": {},
  "deployedLinkReferences": {}
}